{
  "contractName": "RideShare",
  "abi": [
    {
      "inputs": [
        {
          "internalType": "address",
          "name": "RegisterAddr",
          "type": "address"
        }
      ],
      "payable": false,
      "stateMutability": "nonpayable",
      "type": "constructor"
    },
    {
      "anonymous": false,
      "inputs": [
        {
          "indexed": false,
          "internalType": "address",
          "name": "sender",
          "type": "address"
        },
        {
          "indexed": false,
          "internalType": "uint256",
          "name": "id",
          "type": "uint256"
        },
        {
          "indexed": false,
          "internalType": "uint256",
          "name": "farePerKM",
          "type": "uint256"
        },
        {
          "indexed": false,
          "internalType": "string",
          "name": "locaiton",
          "type": "string"
        }
      ],
      "name": "LogListingAdded",
      "type": "event"
    },
    {
      "anonymous": false,
      "inputs": [
        {
          "indexed": false,
          "internalType": "address",
          "name": "passenger",
          "type": "address"
        },
        {
          "indexed": false,
          "internalType": "address",
          "name": "driver",
          "type": "address"
        },
        {
          "indexed": false,
          "internalType": "uint256",
          "name": "payment",
          "type": "uint256"
        },
        {
          "indexed": false,
          "internalType": "uint256",
          "name": "kilometers",
          "type": "uint256"
        }
      ],
      "name": "LogTripCompleted",
      "type": "event"
    },
    {
      "anonymous": false,
      "inputs": [
        {
          "indexed": false,
          "internalType": "address",
          "name": "passenger",
          "type": "address"
        },
        {
          "indexed": false,
          "internalType": "address",
          "name": "driver",
          "type": "address"
        },
        {
          "indexed": false,
          "internalType": "uint256",
          "name": "payment",
          "type": "uint256"
        },
        {
          "indexed": false,
          "internalType": "string",
          "name": "destination",
          "type": "string"
        },
        {
          "indexed": false,
          "internalType": "uint256",
          "name": "kilometers",
          "type": "uint256"
        }
      ],
      "name": "LogTripStarted",
      "type": "event"
    },
    {
      "anonymous": false,
      "inputs": [
        {
          "indexed": false,
          "internalType": "uint256",
          "name": "fare",
          "type": "uint256"
        },
        {
          "indexed": false,
          "internalType": "uint256",
          "name": "amount",
          "type": "uint256"
        }
      ],
      "name": "price",
      "type": "event"
    },
    {
      "constant": false,
      "inputs": [
        {
          "internalType": "uint256",
          "name": "_farePerKM",
          "type": "uint256"
        },
        {
          "internalType": "string",
          "name": "_location",
          "type": "string"
        }
      ],
      "name": "addRideList",
      "outputs": [
        {
          "internalType": "bool",
          "name": "",
          "type": "bool"
        }
      ],
      "payable": false,
      "stateMutability": "nonpayable",
      "type": "function"
    },
    {
      "constant": true,
      "inputs": [],
      "name": "showRidesAvailable",
      "outputs": [
        {
          "internalType": "uint256",
          "name": "",
          "type": "uint256"
        }
      ],
      "payable": false,
      "stateMutability": "view",
      "type": "function"
    },
    {
      "constant": true,
      "inputs": [
        {
          "internalType": "uint256",
          "name": "id",
          "type": "uint256"
        }
      ],
      "name": "showRideDeatils",
      "outputs": [
        {
          "internalType": "uint256",
          "name": "",
          "type": "uint256"
        },
        {
          "internalType": "string",
          "name": "",
          "type": "string"
        },
        {
          "internalType": "address",
          "name": "",
          "type": "address"
        }
      ],
      "payable": false,
      "stateMutability": "view",
      "type": "function"
    },
    {
      "constant": false,
      "inputs": [
        {
          "internalType": "uint256",
          "name": "id",
          "type": "uint256"
        },
        {
          "internalType": "uint256",
          "name": "KM",
          "type": "uint256"
        },
        {
          "internalType": "string",
          "name": "destination",
          "type": "string"
        }
      ],
      "name": "startTrip",
      "outputs": [
        {
          "internalType": "bool",
          "name": "",
          "type": "bool"
        }
      ],
      "payable": true,
      "stateMutability": "payable",
      "type": "function"
    },
    {
      "constant": false,
      "inputs": [
        {
          "internalType": "uint256",
          "name": "id",
          "type": "uint256"
        },
        {
          "internalType": "uint256",
          "name": "totalKM",
          "type": "uint256"
        }
      ],
      "name": "completeTrip",
      "outputs": [
        {
          "internalType": "bool",
          "name": "",
          "type": "bool"
        }
      ],
      "payable": false,
      "stateMutability": "nonpayable",
      "type": "function"
    },
    {
      "constant": false,
      "inputs": [
        {
          "internalType": "uint256",
          "name": "id",
          "type": "uint256"
        }
      ],
      "name": "cancelTrip",
      "outputs": [
        {
          "internalType": "bool",
          "name": "",
          "type": "bool"
        }
      ],
      "payable": false,
      "stateMutability": "nonpayable",
      "type": "function"
    },
    {
      "constant": false,
      "inputs": [
        {
          "internalType": "address",
          "name": "_rider",
          "type": "address"
        },
        {
          "internalType": "uint256",
          "name": "_review",
          "type": "uint256"
        }
      ],
      "name": "review_rider",
      "outputs": [
        {
          "internalType": "bool",
          "name": "",
          "type": "bool"
        }
      ],
      "payable": false,
      "stateMutability": "nonpayable",
      "type": "function"
    },
    {
      "constant": false,
      "inputs": [
        {
          "internalType": "address",
          "name": "_driver",
          "type": "address"
        },
        {
          "internalType": "uint256",
          "name": "_review",
          "type": "uint256"
        }
      ],
      "name": "review_driver",
      "outputs": [
        {
          "internalType": "bool",
          "name": "",
          "type": "bool"
        }
      ],
      "payable": false,
      "stateMutability": "nonpayable",
      "type": "function"
    },
    {
      "constant": true,
      "inputs": [
        {
          "internalType": "address",
          "name": "_user",
          "type": "address"
        }
      ],
      "name": "get_review",
      "outputs": [
        {
          "internalType": "uint256",
          "name": "",
          "type": "uint256"
        }
      ],
      "payable": false,
      "stateMutability": "view",
      "type": "function"
    }
  ],
  "bytecode": "0x608060405234801561001057600080fd5b5060405161201d38038061201d8339818101604052602081101561003357600080fd5b8101908080519060200190929190505050806000806101000a81548173ffffffffffffffffffffffffffffffffffffffff021916908373ffffffffffffffffffffffffffffffffffffffff16021790555050611f89806100946000396000f3fe6080604052600436106100865760003560e01c8063715710de11610059578063715710de14610258578063a892ab6d1461033f578063af2edf1d146103b2578063ce554332146104a0578063d65ec2b7146104fd57610086565b8063160f54f91461008b5780631dca2c7e1461017557806326d1db05146101c857806345f46632146101f3575b600080fd5b34801561009757600080fd5b5061015b600480360360408110156100ae57600080fd5b8101908080359060200190929190803590602001906401000000008111156100d557600080fd5b8201836020820111156100e757600080fd5b8035906020019184600183028401116401000000008311171561010957600080fd5b91908080601f016020809104026020016040519081016040528093929190818152602001838380828437600081840152601f19601f820116905080830192505050505050509192919290505050610570565b604051808215151515815260200191505060405180910390f35b34801561018157600080fd5b506101ae6004803603602081101561019857600080fd5b810190808035906020019092919050505061087f565b604051808215151515815260200191505060405180910390f35b3480156101d457600080fd5b506101dd610a28565b6040518082815260200191505060405180910390f35b3480156101ff57600080fd5b506102426004803603602081101561021657600080fd5b81019080803573ffffffffffffffffffffffffffffffffffffffff169060200190929190505050610b1b565b6040518082815260200191505060405180910390f35b6103256004803603606081101561026e57600080fd5b8101908080359060200190929190803590602001909291908035906020019064010000000081111561029f57600080fd5b8201836020820111156102b157600080fd5b803590602001918460018302840111640100000000831117156102d357600080fd5b91908080601f016020809104026020016040519081016040528093929190818152602001838380828437600081840152601f19601f820116905080830192505050505050509192919290505050610fe5565b604051808215151515815260200191505060405180910390f35b34801561034b57600080fd5b506103986004803603604081101561036257600080fd5b81019080803573ffffffffffffffffffffffffffffffffffffffff1690602001909291908035906020019092919050505061140e565b604051808215151515815260200191505060405180910390f35b3480156103be57600080fd5b506103eb600480360360208110156103d557600080fd5b81019080803590602001909291905050506115ba565b60405180848152602001806020018373ffffffffffffffffffffffffffffffffffffffff1673ffffffffffffffffffffffffffffffffffffffff168152602001828103825284818151815260200191508051906020019080838360005b83811015610463578082015181840152602081019050610448565b50505050905090810190601f1680156104905780820380516001836020036101000a031916815260200191505b5094505050505060405180910390f35b3480156104ac57600080fd5b506104e3600480360360408110156104c357600080fd5b810190808035906020019092919080359060200190929190505050611856565b604051808215151515815260200191505060405180910390f35b34801561050957600080fd5b506105566004803603604081101561052057600080fd5b81019080803573ffffffffffffffffffffffffffffffffffffffff16906020019092919080359060200190929190505050611bab565b604051808215151515815260200191505060405180910390f35b6000600115156000809054906101000a900473ffffffffffffffffffffffffffffffffffffffff1673ffffffffffffffffffffffffffffffffffffffff1663b26c653e336040518263ffffffff1660e01b8152600401808273ffffffffffffffffffffffffffffffffffffffff1673ffffffffffffffffffffffffffffffffffffffff16815260200191505060206040518083038186803b15801561061457600080fd5b505afa158015610628573d6000803e3d6000fd5b505050506040513d602081101561063e57600080fd5b810190808051906020019092919050505015151461065b57600080fd5b6001600354016003819055506040518060a00160405280848152602001838152602001600081526020013373ffffffffffffffffffffffffffffffffffffffff168152602001600073ffffffffffffffffffffffffffffffffffffffff168152506001600060035481526020019081526020016000206000820151816000015560208201518160010190805190602001906106f7929190611e10565b506040820151816002015560608201518160030160006101000a81548173ffffffffffffffffffffffffffffffffffffffff021916908373ffffffffffffffffffffffffffffffffffffffff16021790555060808201518160040160006101000a81548173ffffffffffffffffffffffffffffffffffffffff021916908373ffffffffffffffffffffffffffffffffffffffff1602179055509050507fe302528b510b5cb68b0f5e4aab77becd6d21eccdb9b01ebe778e7464a995438c336003548585604051808573ffffffffffffffffffffffffffffffffffffffff1673ffffffffffffffffffffffffffffffffffffffff16815260200184815260200183815260200180602001828103825283818151815260200191508051906020019080838360005b8381101561083857808201518184015260208101905061081d565b50505050905090810190601f1680156108655780820380516001836020036101000a031916815260200191505b509550505050505060405180910390a16001905092915050565b600061088a82611d57565b61089357600080fd5b60006001600084815260200190815260200160002060030160009054906101000a900473ffffffffffffffffffffffffffffffffffffffff16905060006001600085815260200190815260200160002060040160009054906101000a900473ffffffffffffffffffffffffffffffffffffffff1690506000600260008473ffffffffffffffffffffffffffffffffffffffff1673ffffffffffffffffffffffffffffffffffffffff168152602001908152602001600020819055508073ffffffffffffffffffffffffffffffffffffffff166108fc60016000878152602001908152602001600020600201549081150290604051600060405180830381858888f193505050501580156109aa573d6000803e3d6000fd5b506000600160008681526020019081526020016000206002018190555060006001600086815260200190815260200160002060040160006101000a81548173ffffffffffffffffffffffffffffffffffffffff021916908373ffffffffffffffffffffffffffffffffffffffff160217905550600192505050919050565b6000600115156000809054906101000a900473ffffffffffffffffffffffffffffffffffffffff1673ffffffffffffffffffffffffffffffffffffffff166359cc3227336040518263ffffffff1660e01b8152600401808273ffffffffffffffffffffffffffffffffffffffff1673ffffffffffffffffffffffffffffffffffffffff16815260200191505060206040518083038186803b158015610acc57600080fd5b505afa158015610ae0573d6000803e3d6000fd5b505050506040513d6020811015610af657600080fd5b8101908080519060200190929190505050151514610b1357600080fd5b600354905090565b6000600115156000809054906101000a900473ffffffffffffffffffffffffffffffffffffffff1673ffffffffffffffffffffffffffffffffffffffff166359cc3227336040518263ffffffff1660e01b8152600401808273ffffffffffffffffffffffffffffffffffffffff1673ffffffffffffffffffffffffffffffffffffffff16815260200191505060206040518083038186803b158015610bbf57600080fd5b505afa158015610bd3573d6000803e3d6000fd5b505050506040513d6020811015610be957600080fd5b810190808051906020019092919050505015151415610d7e57600115156000809054906101000a900473ffffffffffffffffffffffffffffffffffffffff1673ffffffffffffffffffffffffffffffffffffffff1663b26c653e846040518263ffffffff1660e01b8152600401808273ffffffffffffffffffffffffffffffffffffffff1673ffffffffffffffffffffffffffffffffffffffff16815260200191505060206040518083038186803b158015610ca457600080fd5b505afa158015610cb8573d6000803e3d6000fd5b505050506040513d6020811015610cce57600080fd5b8101908080519060200190929190505050151514610d37576040517f08c379a0000000000000000000000000000000000000000000000000000000008152600401808060200182810382526022815260200180611f336022913960400191505060405180910390fd5b600460008373ffffffffffffffffffffffffffffffffffffffff1673ffffffffffffffffffffffffffffffffffffffff168152602001908152602001600020549050610fe0565b600115156000809054906101000a900473ffffffffffffffffffffffffffffffffffffffff1673ffffffffffffffffffffffffffffffffffffffff1663b26c653e336040518263ffffffff1660e01b8152600401808273ffffffffffffffffffffffffffffffffffffffff1673ffffffffffffffffffffffffffffffffffffffff16815260200191505060206040518083038186803b158015610e2057600080fd5b505afa158015610e34573d6000803e3d6000fd5b505050506040513d6020811015610e4a57600080fd5b810190808051906020019092919050505015151415610fdf57600115156000809054906101000a900473ffffffffffffffffffffffffffffffffffffffff1673ffffffffffffffffffffffffffffffffffffffff166359cc3227846040518263ffffffff1660e01b8152600401808273ffffffffffffffffffffffffffffffffffffffff1673ffffffffffffffffffffffffffffffffffffffff16815260200191505060206040518083038186803b158015610f0557600080fd5b505afa158015610f19573d6000803e3d6000fd5b505050506040513d6020811015610f2f57600080fd5b8101908080519060200190929190505050151514610f98576040517f08c379a0000000000000000000000000000000000000000000000000000000008152600401808060200182810382526022815260200180611f116022913960400191505060405180910390fd5b600560008373ffffffffffffffffffffffffffffffffffffffff1673ffffffffffffffffffffffffffffffffffffffff168152602001908152602001600020549050610fe0565b5b919050565b6000600115156000809054906101000a900473ffffffffffffffffffffffffffffffffffffffff1673ffffffffffffffffffffffffffffffffffffffff166359cc3227336040518263ffffffff1660e01b8152600401808273ffffffffffffffffffffffffffffffffffffffff1673ffffffffffffffffffffffffffffffffffffffff16815260200191505060206040518083038186803b15801561108957600080fd5b505afa15801561109d573d6000803e3d6000fd5b505050506040513d60208110156110b357600080fd5b81019080805190602001909291905050501515146110d057600080fd5b6110d984611d57565b6110e257600080fd5b6110eb84611dc6565b6110f457600080fd5b60006111008585611de8565b905034670de0b6b3a7640000820214611181576040517f08c379a00000000000000000000000000000000000000000000000000000000081526004018080602001828103825260168152602001807f4465706f73697420636f727265637420616d6f756e740000000000000000000081525060200191505060405180910390fd5b600034905060006001600088815260200190815260200160002060030160009054906101000a900473ffffffffffffffffffffffffffffffffffffffff16905081600260008373ffffffffffffffffffffffffffffffffffffffff1673ffffffffffffffffffffffffffffffffffffffff1681526020019081526020016000205401600260008373ffffffffffffffffffffffffffffffffffffffff1673ffffffffffffffffffffffffffffffffffffffff16815260200190815260200160002081905550826001600089815260200190815260200160002060020181905550336001600089815260200190815260200160002060040160006101000a81548173ffffffffffffffffffffffffffffffffffffffff021916908373ffffffffffffffffffffffffffffffffffffffff1602179055507fb1ac1b64fdf8cbb2c910816f17e931b6d0585508a21e3347bb54f42adc640e7433600160008a815260200190815260200160002060030160009054906101000a900473ffffffffffffffffffffffffffffffffffffffff1685888a604051808673ffffffffffffffffffffffffffffffffffffffff1673ffffffffffffffffffffffffffffffffffffffff1681526020018573ffffffffffffffffffffffffffffffffffffffff1673ffffffffffffffffffffffffffffffffffffffff16815260200184815260200180602001838152602001828103825284818151815260200191508051906020019080838360005b838110156113c25780820151818401526020810190506113a7565b50505050905090810190601f1680156113ef5780820380516001836020036101000a031916815260200191505b50965050505050505060405180910390a1600193505050509392505050565b6000808210158015611421575060648211155b611493576040517f08c379a00000000000000000000000000000000000000000000000000000000081526004018080602001828103825260208152602001807f726576696577206d757374206265206265747765656e203020616e642031303081525060200191505060405180910390fd5b6000600460008573ffffffffffffffffffffffffffffffffffffffff1673ffffffffffffffffffffffffffffffffffffffff1681526020019081526020016000205414156115245781600460008573ffffffffffffffffffffffffffffffffffffffff1673ffffffffffffffffffffffffffffffffffffffff168152602001908152602001600020819055506115b4565b600282600460008673ffffffffffffffffffffffffffffffffffffffff1673ffffffffffffffffffffffffffffffffffffffff16815260200190815260200160002054018161156f57fe5b04600460008573ffffffffffffffffffffffffffffffffffffffff1673ffffffffffffffffffffffffffffffffffffffff168152602001908152602001600020819055505b92915050565b600060606000600115156000809054906101000a900473ffffffffffffffffffffffffffffffffffffffff1673ffffffffffffffffffffffffffffffffffffffff166359cc3227336040518263ffffffff1660e01b8152600401808273ffffffffffffffffffffffffffffffffffffffff1673ffffffffffffffffffffffffffffffffffffffff16815260200191505060206040518083038186803b15801561166257600080fd5b505afa158015611676573d6000803e3d6000fd5b505050506040513d602081101561168c57600080fd5b81019080805190602001909291905050501515146116a957600080fd5b6116b1611e90565b600160008681526020019081526020016000206040518060a001604052908160008201548152602001600182018054600181600116156101000203166002900480601f0160208091040260200160405190810160405280929190818152602001828054600181600116156101000203166002900480156117725780601f1061174757610100808354040283529160200191611772565b820191906000526020600020905b81548152906001019060200180831161175557829003601f168201915b50505050508152602001600282015481526020016003820160009054906101000a900473ffffffffffffffffffffffffffffffffffffffff1673ffffffffffffffffffffffffffffffffffffffff1673ffffffffffffffffffffffffffffffffffffffff1681526020016004820160009054906101000a900473ffffffffffffffffffffffffffffffffffffffff1673ffffffffffffffffffffffffffffffffffffffff1673ffffffffffffffffffffffffffffffffffffffff16815250509050806000015181602001518260600151819150809050935093509350509193909250565b600061186183611d57565b61186a57600080fd5b600060016000858152602001908152602001600020600001548302905060016000858152602001908152602001600020600201548111156118bf57600160008581526020019081526020016000206002015490505b60006001600086815260200190815260200160002060030160009054906101000a900473ffffffffffffffffffffffffffffffffffffffff16905060006001600087815260200190815260200160002060040160009054906101000a900473ffffffffffffffffffffffffffffffffffffffff169050600083600260008573ffffffffffffffffffffffffffffffffffffffff1673ffffffffffffffffffffffffffffffffffffffff168152602001908152602001600020540390506000600260008573ffffffffffffffffffffffffffffffffffffffff1673ffffffffffffffffffffffffffffffffffffffff168152602001908152602001600020819055508173ffffffffffffffffffffffffffffffffffffffff166108fc829081150290604051600060405180830381858888f19350505050158015611a06573d6000803e3d6000fd5b508273ffffffffffffffffffffffffffffffffffffffff166108fc859081150290604051600060405180830381858888f19350505050158015611a4d573d6000803e3d6000fd5b506000600160008981526020019081526020016000206002018190555060006001600089815260200190815260200160002060040160006101000a81548173ffffffffffffffffffffffffffffffffffffffff021916908373ffffffffffffffffffffffffffffffffffffffff1602179055507f0917fb0894c59631a39536b4c03063b5ed8c1aae9a462729e594da1fe878b57e33600160008a815260200190815260200160002060030160009054906101000a900473ffffffffffffffffffffffffffffffffffffffff168689604051808573ffffffffffffffffffffffffffffffffffffffff1673ffffffffffffffffffffffffffffffffffffffff1681526020018473ffffffffffffffffffffffffffffffffffffffff1673ffffffffffffffffffffffffffffffffffffffff16815260200183815260200182815260200194505050505060405180910390a1600194505050505092915050565b6000808210158015611bbe575060648211155b611c30576040517f08c379a00000000000000000000000000000000000000000000000000000000081526004018080602001828103825260208152602001807f726576696577206d757374206265206265747765656e203020616e642031303081525060200191505060405180910390fd5b6000600560008573ffffffffffffffffffffffffffffffffffffffff1673ffffffffffffffffffffffffffffffffffffffff168152602001908152602001600020541415611cc15781600560008573ffffffffffffffffffffffffffffffffffffffff1673ffffffffffffffffffffffffffffffffffffffff16815260200190815260200160002081905550611d51565b600282600560008673ffffffffffffffffffffffffffffffffffffffff1673ffffffffffffffffffffffffffffffffffffffff168152602001908152602001600020540181611d0c57fe5b04600560008573ffffffffffffffffffffffffffffffffffffffff1673ffffffffffffffffffffffffffffffffffffffff168152602001908152602001600020819055505b92915050565b60008073ffffffffffffffffffffffffffffffffffffffff166001600084815260200190815260200160002060030160009054906101000a900473ffffffffffffffffffffffffffffffffffffffff1673ffffffffffffffffffffffffffffffffffffffff1614159050919050565b6000806001600084815260200190815260200160002060020154149050919050565b6000806001600085815260200190815260200160002060000154830290508091505092915050565b828054600181600116156101000203166002900490600052602060002090601f016020900481019282601f10611e5157805160ff1916838001178555611e7f565b82800160010185558215611e7f579182015b82811115611e7e578251825591602001919060010190611e63565b5b509050611e8c9190611eeb565b5090565b6040518060a00160405280600081526020016060815260200160008152602001600073ffffffffffffffffffffffffffffffffffffffff168152602001600073ffffffffffffffffffffffffffffffffffffffff1681525090565b611f0d91905b80821115611f09576000816000905550600101611ef1565b5090565b9056fe6f6e6c79206472697665722063616e206765742072696465722773207265766965776f6e6c792072696465722063616e2067657420647269766572277320726576696577a265627a7a723158200f2f3f645a529248314071bb371fbdbb81a34c4aeb73889a6a2f4d593f8cfb7b64736f6c63430005100032",
  "source": "pragma solidity ^0.5.0;\n\nimport \"./Register.sol\";\n\ncontract RideShare{\n    \n    Register reginstance;\n   \n    constructor(address RegisterAddr) public{\n        reginstance = Register(RegisterAddr);\n    }\n    \n    event LogListingAdded(address sender, uint id, uint farePerKM, string locaiton);\n    event LogTripStarted(address passenger, address driver, uint payment,\n        string destination, uint kilometers);\n    event LogTripCompleted(address passenger, address driver, uint payment,\n        uint kilometers);\n    event price(uint256 fare, uint256 amount);\n    \n    /*struct for rideshare details*/\n    struct Ride {\n        uint farePerKM;\n        string location;\n        uint lockedAmount;\n        address payable driverAddr;\n        address payable passengerAddr;\n    }\n    \n    mapping(uint256 => Ride) rideList;\n    \n    \n    mapping (address => uint256) deposits;\n    \n    uint listingsCnt;\n    \n    mapping(address => uint256) Driver_review;\n    mapping(address => uint256) Rider_review;\n    \n    /*Driver adding riding details*/\n    function addRideList(uint _farePerKM, string memory _location)\n        public returns(bool)\n    {\n       require(reginstance.is_driver(msg.sender) == true); //checks the driver is registered\n        \n        listingsCnt = listingsCnt + 1;\n        rideList[listingsCnt] = Ride({\n                farePerKM: _farePerKM,\n                location: _location,\n                lockedAmount: 0,\n                driverAddr: msg.sender,\n                passengerAddr: address(0)\n            });\n\n        emit LogListingAdded(msg.sender, listingsCnt, _farePerKM, _location);\n        return true;\n    }\n    \n    /*To show all the rides available with FarePerKM and driver location*/\n    function showRidesAvailable() public view returns(uint256){\n        require(reginstance.is_rider(msg.sender) == true);  //only rider can view\n        \n        return listingsCnt;\n    }\n    \n    function showRideDeatils(uint id) public view returns(uint, string memory, address)\n    {\n        require(reginstance.is_rider(msg.sender) == true);  //only rider can view\n        \n        Ride memory rideDetails = rideList[id];\n        \n        return (rideDetails.farePerKM, rideDetails.location, rideDetails.driverAddr);\n    }\n    \n    /*Ride accepted by the rider*/\n    /*Rider has to deposit the estimate fare*/\n    function startTrip(uint id, uint KM, string memory destination)\n        public payable\n        returns (bool)\n    {\n        require(reginstance.is_rider(msg.sender) == true);\n        require(listingExists(id));\n        require(listingAvailable(id));\n        \n        uint256 requiredAmount = getEstimateFare(id, KM);\n        \n       require((requiredAmount * (10**18)) == msg.value, \"Deposit correct amount\"); //checks the correct amount is paid\n\n        \n        uint256 amount = msg.value;\n        address payee = rideList[id].driverAddr;\n        deposits[payee] = deposits[payee] + amount;         //Escrow\n\n        rideList[id].lockedAmount = requiredAmount;\n        rideList[id].passengerAddr = msg.sender;\n\n        emit LogTripStarted(msg.sender, rideList[id].driverAddr, requiredAmount, destination, KM);\n        return true;\n    }\n    \n    /*internal function to calculate estimate fare*/\n    function getEstimateFare(uint id, uint KM) internal view returns (uint256)\n    {\n        uint256 requiredAmount = KM * rideList[id].farePerKM;\n        \n        return requiredAmount;\n    }\n    \n    /*checks the driver exists or not*/\n    function listingExists(uint id)\n        internal\n        view\n        returns (bool)\n    {\n        return (rideList[id].driverAddr != address(0));\n    }\n\n    /*checks the driver is available for the ride*/\n    function listingAvailable(uint id)\n        internal\n        view\n        returns (bool)\n    {\n        return (rideList[id].lockedAmount == 0);\n    }\n    \n    /*function is called by the rider when trip is completed*/\n    function completeTrip(uint id, uint totalKM)\n        public\n        returns (bool)\n    {\n        require(listingExists(id));\n\n        uint totalAmount = totalKM * rideList[id].farePerKM;\n        if (totalAmount > rideList[id].lockedAmount)\n            totalAmount = rideList[id].lockedAmount;\n\n        address payable payee = rideList[id].driverAddr;\n        address payable payer = rideList[id].passengerAddr;\n        uint256 remainingAmount = deposits[payee] - totalAmount;    //if actual amount is less than estimate \n                                                                    //then remaining amount transferred back to rider's account\n        deposits[payee] = 0;\n        payer.transfer(remainingAmount);\n\n        payee.transfer(totalAmount);\n\n        rideList[id].lockedAmount = 0;\n        rideList[id].passengerAddr = address(0);\n\n        emit LogTripCompleted(msg.sender, rideList[id].driverAddr, totalAmount, totalKM);\n        return true;\n    }\n    \n    /*function called by rider to cancel the ride*/\n    function cancelTrip(uint id)\n        public\n        returns (bool)\n    {\n        require(listingExists(id));\n\n        address payable payee = rideList[id].driverAddr;\n        address payable payer = rideList[id].passengerAddr;\n        \n        deposits[payee] = 0;\n        payer.transfer(rideList[id].lockedAmount);              //deposit amount transferred back to rider's account\n\n        rideList[id].lockedAmount = 0;\n        rideList[id].passengerAddr = address(0);\n        \n        return true;\n    }\n    \n    /*function is called after the trip is completed*/\n    /*Driver can review the rider*/\n    function review_rider(address _rider, uint _review) public returns (bool) {\n        require(\n            _review >= 0 && _review <= 100, \"review must be between 0 and 100\"\n            );\n        \n        if(Rider_review[_rider] == 0) {\n            Rider_review[_rider] = _review;\n        }\n        else {\n        Rider_review[_rider] = (Rider_review[_rider] + _review) / 2;\n        }\n    }\n    \n    /*function is called after the trip is completed*/\n    /*Rider can review the driver*/\n    function review_driver(address _driver, uint _review) public returns (bool) {\n        require(\n            _review >= 0 && _review <= 100, \"review must be between 0 and 100\"\n            );\n        \n        if(Driver_review[_driver] == 0) {\n            Driver_review[_driver] = _review;\n        }\n        else {\n        Driver_review[_driver] = (Driver_review[_driver] + _review) / 2;\n        }\n    }\n    \n    /*Review is visible in the user details before starting the ride*/\n    function get_review(address _user) public view returns (uint256) {\n        if(reginstance.is_rider(msg.sender) == true){\n            require(reginstance.is_driver(_user) == true, \"only rider can get driver's review\");\n            return (Driver_review[_user]);\n        }\n        \n        if(reginstance.is_driver(msg.sender) == true){\n            require(reginstance.is_rider(_user) == true, \"only driver can get rider's review\");\n            return (Rider_review[_user]);\n        }\n    }\n    \n}",
  "sourcePath": "/home/shipra11/truffleproject/contracts/RideShare.sol",
  "compiler": {
    "name": "solc",
    "version": "0.5.16+commit.9c3226ce.Emscripten.clang"
  },
  "schemaVersion": "3.2.4",
  "updatedAt": "2020-09-02T12:55:40.713Z",
  "networkType": "ethereum",
  "devdoc": {
    "methods": {}
  },
  "userdoc": {
    "methods": {}
  }
}